:03000000020800F3
:0C080000787FE4F6D8FD75810D020847F2
:100A3E004155544F4D415449430049525249474143
:100A4E0054494F4E2053595354454D0054454D5221
:090A5E004554555245203A200090
:070B300001080002090000AA
:03000B00020B42A3
:030B4200B2B0321C
:1008FA00C2A3758902758CFD120A8A7BFF7A0A796E
:10090A003E120A67E4FD7F01120A087BFF7A0A7920
:10091A0048120A677FF47E01120AC5120B26120BCF
:10092A0038120B1A7BFF7A0A795A120A6775A8825B
:10093A00D28C7F071209C58F08120B3D75090085F5
:10094A00080AC3E50A9432E50994005004C2A38058
:0C095A0002D2A3AF0AAE0912096680D6D3
:100ADC00D2A27F647E00120B0EC2A27F0A7E00029D
:020AEC000B0EEF
:100A8A007F887E13120B0EE4F5807F38120AEE7F00
:0E0A9A000E120AEE7F01120AEE7F80020AEEB3
:100AEE008F80C2A0C2A1120ADC7F017E00020AC55D
:0D0AA800AE0BAF0C7C001208A5EF2430FF50
:100AB5008F80D2A0C2A1120ADC7F017E00020AC586
:0A0B26007F01120AEE7F80020AEE42
:050B38007F80020AEEBF
:050B3D007FC0020AEE7A
:100A0800EFFB3395E0FAC3EB9402EA6480948050DC
:100A180020EFC4333354C04480F50BEDFF3395E029
:100A2800FEC3EF9410EE648094805005ED250BF51D
:060A38000BAF0B020AEEF9
:100A67008B0B8A0C890DAB0BAA0CA90D12088CFFF6
:100A77006010120AB57401250DF50DE4350CF50C5F
:030A870080E422E6
:100966008E0B8F0C7C277D10120AAEAE0BAF0C7C63
:10097600277D101208A58C0B8D0CAE0BAF0C7C03DB
:100986007DE8120AAEAE0BAF0C7C037DE81208A51B
:100996008C0B8D0C7D64120AA8AE0BAF0C7C007D0F
:1009A600641208A58C0B8D0C7D0A120AA8AE0BAF3B
:0F09B6000C7C007D0A1208A5ED2430FF020AB563
:0C0B0E00EF4E6007EF1F70F81E80F5220C
:100AC500AD07AC06ED4C600E7F707E00120B0EED8F
:070AD5001D70F11C80EE22F0
:100AFE00AB07EB600A7FE87E03120AC51B80F32268
:0C0B1A00C2B1C2B4C2B3D2A47590FF22D5
:1009C500EF1392B5EFA2E7131392B6EFA2E713A2C6
:1009D500E7131392B7D2B47F327E00120B0ED2B159
:1009E5007F197E00120B0EC2B47F327E00120B0EF1
:1009F500C2B130A4FDD2B37F197E00120B0EAF90A9
:020A0500C2B37A
:010A070022CC
:10080C000208FAE493A3F8E493A34003F68001F200
:10081C0008DFF48029E493A3F85407240CC8C333ED
:10082C00C4540F4420C8834004F456800146F6DFBC
:10083C00E4800B0102040810204080900B30E47E11
:10084C00019360BCA3FF543F30E509541FFEE493B1
:10085C00A360010ECF54C025E060A840B8E493A378
:10086C00FAE493A3F8E493A3C8C582C8CAC583CAA3
:10087C00F0A3C8C582C8CAC583CADFE9DEE780BE5B
:010B370000BD
:10088C00BB010689828A83E0225002E722BBFE026A
:09089C00E32289828A83E493229D
:1008A500BC000BBE0029EF8DF084FFADF022E4CC37
:1008B500F875F008EF2FFFEE33FEEC33FCEE9DEC00
:1008C500984005FCEE9DFE0FD5F0E9E4CEFD22ED46
:1008D500F8F5F0EE8420D21CFEADF075F008EF2F90
:1008E500FFED33FD4007985006D5F0F222C398FD81
:0508F5000FD5F0EA221E
:00000001FF
